S00F00004932435F4255532E737265630E
S11300000C945A000C9477000C9477000C947700AD
S11300100C9477000C9477000C9477000C94770080
S11300200C9477000C9477000C9477000C941B03C9
S11300300C9477000C9477000C9477000C94770060
S11300400C9477000C9477000C9477000C94490777
S11300500C9477000C9477000C9477000C94770040
S11300600C9477000C9477000C9477000C94770030
S11300700C9477000C9477000C9477000C94770020
S11300800C9477000C9477000C9477000C94770010
S11300900C9477000C9477000C9477000C94770000
S11300A00C9477000C9477000C9477000C947700F0
S11300B00C94770011241FBECFEFD8E0DEBFCDBF74
S11300C012E0A0E0B1E0E0E5F5E102C005900D9298
S11300D0A837B107D9F726E0A8E7B2E001C01D921E
S11300E0A738B207E1F70E943E030C94A60A0C94C9
S11300F0000087B1816087B988B18E7F88B92FEFFE
S113010089EF90E0215080409040E1F700C000006A
S113011088B1816088B9089587B18E7F87B9309995
S1130120FECF309BFECF3099FECF089520E030E023
S113013080E011C0309BFECF90EA9A95F1F7309B96
S113014005C090E0880F991F816001C0880F309925
S1130150FECF2F5F3F4F2830310564F30895CF93CE
S1130160DF93EC012FEF85EA9EE021508040904020
S1130170E1F700C000000E9479000E948C000E94F8
S1130180960088830E94960089830E9496008A8341
S11301900E9496008B830E9496008C83DF91CF91FE
S11301A008950F931F93CF93DF93CDB7DEB7C45653
S11301B0D1090FB6F894DEBF0FBECDBFFC01338169
S11301C02281918180811F923F931F922F931F92CE
S11301D09F931F928F9380E091E09F938F938E0162
S11301E00F5F1F4F1F930F930E94BC07C8010E940B
S11301F0AA070FB6F894DEBF0FBECDBFCC59DF4FB0
S11302000FB6F894DEBF0FBECDBFDF91CF911F9123
S11302100F910895EF92FF920F931F93CF93DF9363
S1130220CDB7DEB7C456D1090FB6F894DEBF0FBE02
S1130230CDBF7C01FC0180811F928F9382E391E00A
S11302409F938F938E010F5F1F4F1F930F930E94F5
S1130250BC0760E08BE00E94FD02C8010E94050318
S1130260F70182811F928F938BE391E09F938F9389
S11302701F930F930E94BC0761E08BE00E94FD0274
S1130280C8010E9405030FB6F894DEBF0FBECDBFB0
S1130290CC59DF4F0FB6F894DEBF0FBECDBFDF9150
S11302A0CF911F910F91FF90EF9008951F93CF93DB
S11302B0DF93182FEB010E94990480EA0E94B50491
S11302C0812F0E94E20489810E94E20488810E94B5
S11302D0E2048B810E94E2048A810E94E2040E946B
S11302E0AD048FE39CE90197F1F700C00000DF91B2
S11302F0CF911F9108951F93CF93DF93CDB7DEB7AE
S11303002A970FB6F894DEBF0FBECDBF182F0E94F8
S1130310990480EA0E94B504812F0E94E2040E949D
S1130320AD040E94990480EA0E94CB040E94F80460
S11303308F830E94F8048E830E94F80489870E94A8
S1130340F80488870E94AD048FE39CE90197F1F7D4
S113035000C0000085E0FE013696DE011196019092
S11303600D928A95E1F729813A814B815C816D81F7
S113037070E080E090E02A960FB6F894DEBF0FBEDE
S1130380CDBFDF91CF911F9108951F93CF93DF933A
S1130390182FEB010E94990480EA0E94B504812F72
S11303A00E94E20488810E94E20489810E94E2049E
S11303B08A810E94E2048B810E94E2048C810E9463
S11303C0E2048D810E94E2048E810E94E2040E9474
S11303D0AD048FE39CE90197F1F700C00000DF91C1
S11303E0CF911F9108951F93CF93DF93CDB7DEB7BD
S11303F02E970FB6F894DEBF0FBECDBF182F0E9404
S1130400990480EA0E94B504812F0E94E2040E94AC
S1130410AD040E94990480EA0E94CB040E94F8046F
S113042088870E94F80489870E94F8048A870E94BA
S1130430F8048B870E94F8048C870E94F8048D8747
S11304400E94F8048E870E94AD048FE39CE9019713
S1130450F1F700C0000087E0FE013896DE01119636
S113046001900D928A95E1F729813A814B815C8153
S11304706D817E818F8190E02E960FB6F894DEBF59
S11304800FBECDBFDF91CF911F910895CF93C82F99
S1130490C295C07F609178026460609378028EE4B4
S11304A00E947A0487EC90E00197F1F700C0000005
S11304B0609178026C2B8EE40E947A046091780239
S11304C06B7F609378028EE40E947A0487EC90E05C
S11304D00197F1F700C00000CF910895CF93DF9307
S11304E0C82FD82FD295DF70609178026E7F609309
S11304F078028EE40E947A048D2F0E9446028C2F8B
S11305000E944602DF91CF910895CF93DF93C82FC5
S1130510D82FD295DF706091780261606093780281
S11305208EE40E947A048D2F0E9446028C2F0E9432
S11305304602DF91CF9108950E94FE038FE59AEE63
S11305400197F1F700C0000083E00E9446028FE0AB
S113055090E40197F1F700C0000083E00E94460296
S11305608FE891E00197F1F700C0000083E00E945A
S113057046028FE99FE00197F1F700C0000082E096
S11305800E9446028FE99FE00197F1F700C0000046
S113059088E20E946E028FE99FE00197F1F700C0A4
S11305A000008CE00E946E028FE99FE00197F1F752
S11305B000C0000081E00E946E028FE99FE0019775
S11305C0F1F700C0000086E00E946E028FE99FE010
S11305D00197F1F700C000006091780268606093B1
S11305E078028EE40E947A04609178026D7F6093B1
S11305F078028EE40E947A04089590E4699F800D45
S1130600112480680E946E0208950F931F93CF9364
S1130610DF938C01C0E0D0E003C00E9485022196E4
S1130620F801EC0FFD1F80818111F7CFDF91CF918D
S11306301F910F9108951F920F920FB60F921124DC
S11306408F939F9380917B0290917C02019690936B
S11306507C0280937B020A9751F481E090E09093AE
S11306607A028093790210927C0210927B029F910D
S11306708F910F900FBE0F901F901895CF93DF931B
S1130680CDB7DEB768970FB6F894DEBF0FBECDBF07
S11306900E94FE030E948B040E9485070E94340777
S11306A00E949C0278946894CC24C2F80F2EF6E140
S11306B0EF2EF02D06E02FE048E267E38CE00E9485
S11306C0E20610E0CE0101960E947A06CE01019660
S11306D00E94C205CE0101960E940406CE010F9627
S11306E00E94AF00CE010F960E94D100CE010F965A
S11306F00E940A011123E9F18091790290917A0212
S11307000197B9F583E491E00E94AA078FE39CE97D
S11307100197F1F700C0000080E10E947B012C8B5F
S11307203D8B4E8B5F8B688F80E50E94F301288799
S113073039874A875B876C877D878E87CE010896C9
S11307400E94C205CE0108960E940406CE0144967A
S11307500E94D100CE0144960E940A018FE39CE9D5
S11307600197F1F700C000008FE691E00E94AA070C
S113077010E08091790290917A02892BA9F186E7A1
S113078091E00E94AA078FE39CE90197F1F700C06A
S11307900000BE01615F7F4F80E10E945601BE01EF
S11307A06F5F7F4F80E50E94C501CE0101960E94D4
S11307B0C205CE0101960E940406CE010F960E9446
S11307C0D100CE010F960E940A018FE39CE90197A4
S11307D0F1F700C000008FE691E00E94AA07109292
S11307E07A021092790211E09FEF2DE282E2915099
S11307F020408040E1F700C0000064CFE4E6F0E070
S113080080818F77808388E48093B800089584EA98
S11308108093BC008091BC008823E4F78091B900E8
S1130820887F883031F085EB91E00E94AA0780E050
S1130830089581E0089584E98093BC008091BC0010
S113084084FDFCCF08958093BB0084E88093BC00B2
S11308508091BC008823E4F78091B900887F8831B7
S113086031F082EC91E00E94AA0780E0089581E0D3
S1130870089581608093BB0084E88093BC008091DC
S1130880BC008823E4F78091B900887F803431F07C
S113089085ED91E00E94AA0780E0089581E0089523
S11308A08093BB0084E88093BC008091BC008823C3
S11308B0E4F78091B900887F883231F088EE91E0C6
S11308C00E94AA0780E0089581E0089584EC809353
S11308D0BC008091BC008823E4F78091BB0008959C
S11308E084E88093BC008091BC008823E4F7809165
S11308F0BB000895CF93DF93D82FC62F0E9407041F
S11309008D2F0E9423048C2F0E9450040E941B04EC
S1130910DF91CF910895E5E6F0E080818F7D8083BB
S113092084E48093DC001092D90088E48093D8009A
S1130930089584EA8093DC008091DC008823E4F746
S11309408091D900887F883031F085EB91E00E9456
S1130950AA0780E0089581E0089584E98093DC008B
S11309608091DC0084FDFCCF08958093DB0084E853
S11309708093DC008091DC008823E4F78091D90027
S1130980887F883131F082EC91E00E94AA0780E0F0
S1130990089581E0089581608093DB0084E880936A
S11309A0DC008091DC008823E4F78091D900887F03
S11309B0803431F085ED91E00E94AA0780E008952B
S11309C081E008958093DB0084E88093DC008091CB
S11309D0DC008823E4F78091D900887F883231F0E5
S11309E088EE91E00E94AA0780E0089581E00895CE
S11309F084EC8093DC008091DC008823E4F7809110
S1130A00DB000895FC01009711F40E94B7076115FB
S1130A10710511F40E94B7074115510511F40E94A4
S1130A20B707892B91F06115710589F041155105BE
S1130A3081F0718360837383628357834683158255
S1130A4014827187608781E0089580E0089580E0D2
S1130A50089580E00895CF93DF93FC01009711F48B
S1130A600E94B707892B99F124813581868197816A
S1130A702817390770F5C085D185A081B181AE01F1
S1130A804A1B5B0B9A0122F422273327241B350BC4
S1130A908217930779F4D183C0836883808191811D
S1130AA001969183808384819581019695838483C3
S1130AB081E010C06C938081918101969183808341
S1130AC08481958101969583848381E003C080E0CD
S1130AD001C080E0DF91CF910895CF93DF93FC01B3
S1130AE0009711F40E94B7076115710511F40E9473
S1130AF0B707892BE9F161157105E1F184819581CD
S1130B002681378128173907B8F1892BB9F1C085B7
S1130B10D185A281B381AE014A1B5B0BCA01992323
S1130B2024F488279927841B950B2817390789F4FF
S1130B30D383C2838881DB018C9382819381019664
S1130B40938382838481958101979583848381E053
S1130B5016C08C91DB018C938281938101969383DF
S1130B6082838481958101979583848381E007C082
S1130B7080E005C080E003C080E001C080E0DF9138
S1130B80CF9108950F931F93CF93DF93CDB7DEB723
S1130B90C456D1090FB6F894DEBF0FBECDBFFC0119
S1130BA064815681458133812081918182811F92A4
S1130BB06F931F925F931F924F931F923F931F92C5
S1130BC02F931F929F931F928F938BE292E09F9398
S1130BD08F938E010F5F1F4F1F930F930E94BC07CB
S1130BE0C8010E94AA070FB6F894DEBF0FBECDBF9E
S1130BF0CC59DF4F0FB6F894DEBF0FBECDBFDF91E7
S1130C00CF911F910F910895EF92FF920F931F932D
S1130C10CF93DF93CDB7DEB769970FB6F894DEBFF5
S1130C200FBECDBF8C01FC012081918182811F9276
S1130C302F931F929F931F928F938AE592E09F9325
S1130C408F93CE0101967C019F938F930E94BC07E2
S1130C5060E080E00E94FD02C7010E940503F801E4
S1130C602681958183811F922F931F929F931F92B8
S1130C708F9389E692E09F938F93FF92EF920E9465
S1130C80BC0761E080E00E94FD02C7010E940503E9
S1130C900FB6F894DEBF0FBECDBF69960FB6F894B9
S1130CA0DEBF0FBECDBFDF91CF911F910F91FF909B
S1130CB0EF900895982F92959F70292F220F920FED
S1130CC0292F220F821B08952DEC829F212D1124A0
S1130CD0922F969596959695990F392F330F330F3A
S1130CE0930F891B26952695269530E1239F800D29
S1130CF011240895BF92CF92DF92EF92FF920F9347
S1130D001F93CF93DF93EC010E94070482EA0E94B1
S1130D10230482E00E9450040E941B040E940704E2
S1130D2082EA0E9439040E946604B82E0E94660476
S1130D30D82E0E946604E82E0E946604F82E0E94B3
S1130D406604082F0E946604182F0E947004C82E9F
S1130D500E941B048D2D8F77D82E8E2D8F73E82E35
S1130D608F2D8F73F82E07701F718B2D8F770E9434
S1130D705A06B82E8D2D0E945A06D82E8E2D0E940A
S1130D805A06E82E8F2D0E945A06F82E802F0E94B4
S1130D905A06082F812F0E945A06182F8C2D0E9464
S1130DA05A06B882D982EA82FB820C831D838E8321
S1130DB0DF91CF911F910F91FF90EF90DF90CF9033
S1130DC0BF900895AF92BF92CF92DF92EF92FF92BD
S1130DD00F931F93CF93DF93162FD42FC22F0E940C
S1130DE06406D82E812F0E946406B82E8D2F0E948F
S1130DF06406A82E8C2F0E946406F82E802F0E9471
S1130E006406D82F8E2D0E946406C82F8C2D0E9454
S1130E106406182F0E94070482EA0E94230482E0D9
S1130E200E9450048A2D0E9450048B2D0E9450046D
S1130E308D2D0E9450048F2D0E945004812F0E94FA
S1130E4050048D2F0E9450048C2F0E9450040E9445
S1130E501B04DF91CF911F910F91FF90EF90DF90D2
S1130E60CF90BF90AF900895E1E8F0E08081856075
S1130E70808380818860808389E09DE390938900EA
S1130E8080938800EFE6F0E080818260808378942C
S1130E9008951F920F920FB60F9211242F933F9330
S1130EA04F935F936F937F938F939F93AF93BF936E
S1130EB0EF93FF93CF93DF931F92CDB7DEB7BE01BD
S1130EC06F5F7F4F8DE796E00E946D05882321F0C8
S1130ED089818093C60005C0E1ECF0E080818F7DBC
S1130EE080830F90DF91CF91FF91EF91BF91AF91EC
S1130EF09F918F917F916F915F914F913F912F912E
S1130F000F900FBE0F901F90189540E054E06DE7CE
S1130F1072E08DE796E00E9402051092C50087E614
S1130F208093C40088E18093C10086E08093C2006E
S1130F300895F894682F8DE796E00E942B05882386
S1130F4039F0E1ECF0E08081806280837894089548
S1130F50F8940895CF93DF93EC0103C021960E9487
S1130F60990788818111FACFDF91CF91089581E0AB
S1130F7090E0F8940C94A60AAEE0B0E0E2ECF7E05E
S1130F800C947D0A0D891E8986E08C831A8309835B
S1130F908FEF9FE79E838D83AE01475E5F4F6F891E
S1130FA0788DCE0101960E94DE07EF81F885E00F6F
S1130FB0F11F10822E96E4E00C94990AABE0B0E0A5
S1130FC0E4EEF7E00C946F0A6C017B018A01FC01EA
S1130FD017821682838181FFCCC1CE0101963C0128
S1130FE0F6019381F70193FD859193FF81917F0130
S1130FF0882309F4BAC1853239F493FD859193FFAE
S113100081917F01853229F4B60190E00E94D509CF
S1131010E7CF912C212C312CFFE1F315D8F08B3242
S113102079F038F4803279F08332A1F4232D2061F1
S11310301DC08D3261F0803369F4232D216016C008
S1131040832D8260382EE32DE4603E2E2AC0F32DDA
S1131050F8601DC037FC2DC020ED280F2A3040F069
S11310608E32B9F436FC81C1232D2064322E19C08E
S113107036FE06C08AE0989E200D1124922E11C0DF
S1131080EAE02E9E200D1124222EF32DF0623F2E35
S113109008C08C3621F4832D8068382E02C088362F
S11310A041F4F70193FD859193FF81917F018111B3
S11310B0B3CF982F9F7D9554933028F40C5F1F4F26
S11310C09FE399830DC0833631F0833771F0833504
S11310D009F059C021C0F801808189830E5F1F4F38
S11310E088248394912C530113C02801F2E04F0EFD
S11310F0511CF801A080B18036FE03C0692D70E058
S113110002C06FEF7FEFC5010E94CA094C01820142
S1131110F32DFF773F2E16C0280122E0420E511C0A
S1131120F801A080B18036FE03C0692D70E002C0D2
S11311306FEF7FEFC5010E94BF094C01F32DF068EA
S11311403F2E820133FC1BC0822D90E08816990645
S1131150B0F4B60180E290E00E94D5092A94F4CF5D
S1131160F50137FC859137FE81915F01B60190E06E
S11311700E94D50921102A9421E0821A9108811431
S1131180910471F7E8C0843611F0893641F5F8010D
S113119037FE07C060817181828193810C5F1F4F8C
S11311A008C060817181072E000C880B990B0E5FBB
S11311B01F4FF32DFF763F2E97FF09C09095809522
S11311C0709561957F4F8F4F9F4FF0683F2E2AE0B7
S11311D030E0A3010E94110A882E861845C0853785
S11311E031F4232D2F7EB22E2AE030E025C0932D3A
S11311F0997FB92E8F36C1F018F4883579F0B5C0CF
S1131200803719F0883721F0B0C0E92FE061BE2E95
S1131210B4FE0DC0FB2DF460BF2E09C034FE0AC01D
S1131220292F2660B22E06C028E030E005C020E158
S113123030E002C020E132E0F801B7FE07C060816F
S11312407181828193810C5F1F4F06C0608171811F
S113125080E090E00E5F1F4FA3010E94110A882EC8
S11312608618FB2DFF773F2E36FE0DC0232D2E7FD3
S1131270A22E891458F434FE0BC032FC09C0832D0D
S11312808E7EA82E05C0B82CA32C03C0B82C01C098
S1131290B92CA4FE0FC0FE01E80DF11D808180333E
S11312A021F49A2D997EA92E09C0A2FE06C0B394FA
S11312B0B39404C08A2D867809F0B394A3FC11C0BA
S11312C0A0FE06C0B21488F4280C922C9B180EC001
S11312D0B21460F4B60180E290E00E94D509B394A0
S11312E0F7CFB21418F42B1802C0982C212CA4FEAA
S11312F010C0B60180E390E00E94D509A2FE17C099
S1131300A1FC03C088E790E002C088E590E0B60144
S11313100CC08A2D867859F0A1FE02C08BE201C070
S113132080E2A7FC8DE2B60190E00E94D509891401
S113133038F4B60180E390E00E94D5099A94F7CF7F
S11313408A94F301E80DF11D8081B60190E00E94BA
S1131350D5098110F5CF222009F442CEB60180E2EE
S113136090E00E94D5092A94F6CFF60186819781F0
S113137002C08FEF9FEF2B96E2E10C948B0AFC01E5
S11313800590615070400110D8F7809590958E0FAC
S11313909F1F0895FC016150704001900110D8F71F
S11313A0809590958E0F9F1F08950F931F93CF9351
S11313B0DF93FB01238121FD03C08FEF9FEF2CC03E
S11313C022FF16C046815781248135814217530775
S11313D044F4A081B1819D012F5F3F4F318320836D
S11313E08C93268137812F5F3F4F3783268314C028
S11313F08B01EC01FB010084F185E02D0995892B1B
S1131400E1F6D80116968D919C911797019617963F
S11314109C938E931697CE01DF91CF911F910F91DC
S11314200895FA01AA27283051F1203181F1E89476
S11314306F936E7F6E5F7F4F8F4F9F4FAF4FB1E0C3
S11314403ED0B4E03CD0670F781F891F9A1FA11DBE
S1131450680F791F8A1F911DA11D6A0F711D811DBF
S1131460911DA11D20D009F468943F912AE0269F84
S113147011243019305D3193DEF6CF010895462FE3
S11314804770405D4193B3E00FD0C9F7F6CF462FC4
S11314904F70405D4A3318F0495D31FD405241932D
S11314A002D0A9F7EACFB4E0A695979587957795EA
S11314B06795BA95C9F700976105710508959B0171
S11314C0AC010A2E06945795479537952795BA95FA
S11314D0C9F7620F731F841F951FA01D08952F92D3
S11314E03F924F925F926F927F928F929F92AF92B0
S11314F0BF92CF92DF92EF92FF920F931F93CF93FD
S1131500DF93CDB7DEB7CA1BDB0B0FB6F894DEBF93
S11315100FBECDBF09942A88398848885F846E84B9
S11315207D848C849B84AA84B984C884DF80EE8003
S1131530FD800C811B81AA81B981CE0FD11D0FB60C
S1131540F894DEBF0FBECDBFED010895F894FFCF30
S113155048756D6964697479203D20253032642EA4
S11315602530326425250954656D70657261747582
S11315707265203D20253032642E25303264430AC2
S11315800D00483D25303264252500543D25303278
S11315906443000A0D0A0D4F64637A7974207761FD
S11315A072746F736369207A61706973616E7963B1
S11315B06820646F20454550524F4D3A0A0D000A89
S11315C00D0A0D0A0D000A0D0A0D57796B6F6E6135
S11315D06E6F207A6170697320776172746F7363C0
S11315E069207A20444854313120692052544320E0
S11315F0646F2070616D6965636920454550524F81
S11316004D3A0A0D005354415254204E41434B0A63
S11316100D0057726974655F534C415F57204E410A
S1131620434B0A0D0057726974655F534C415F5216
S1131630204E41434B0A0D0057726974655F646123
S11316407461204E41434B0A0D000D0A09536C612D
S1131650766520616464726573733A20307825304E
S113166032780A0D0A0D0043616E742066696E6457
S11316703A203078253032780A0D00253032643A29
S1131680253032643A2530326409253032642E25FF
S11316903032642E25303264722020202057454594
S11316A04B4441593A25640A0D00253032643A25E9
S11316B03032643A2530326400253032642E2530CD
S10B16C032642E25303264006F
S9030000FC
