:100000000C945A000C9477000C9477000C947700B1
:100010000C9477000C9477000C9477000C94770084
:100020000C9477000C9477000C9477000C94770074
:100030000C9477000C9477000C9477000C94770064
:100040000C9477000C9477000C9477000C94770054
:100050000C9477000C9477000C9477000C94770044
:100060000C9477000C9477000C9477000C94770034
:100070000C9477000C9477000C9477000C94770024
:100080000C9477000C9477000C9477000C94770014
:100090000C9477000C9477000C9477000C94770004
:1000A0000C9477000C9477000C9477000C947700F4
:1000B0000C94770011241FBECFEFD8E0DEBFCDBF78
:1000C00012E0A0E0B1E0EAE3FEE002C005900D928C
:1000D000AC38B107D9F722E0ACE8B2E001C01D921C
:1000E000AC39B207E1F70E94C6010C941B070C94CF
:1000F00000000F931F93CF93DF93CDB7DEB7C456A5
:10010000D1090FB6F894DEBF0FBECDBFEDE8F2E027
:1001100035812481938182811F923F931F922F9377
:100120001F929F931F928F9380E091E09F938F93F4
:100130008E010F5F1F4F1F930F930E943104C80160
:100140000E9424040FB6F894DEBF0FBECDBFCC5979
:10015000DF4F0FB6F894DEBF0FBECDBFDF91CF915A
:100160001F910F9108950F931F93CF93DF93CDB7F6
:10017000DEB7C456D1090FB6F894DEBF0FBECDBFAF
:10018000EDE8F2E035812481938182811F923F93D3
:100190001F922F931F929F931F928F9381E391E061
:1001A0009F938F938E010F5F1F4F1F930F930E949A
:1001B000310461E080E00E94A801C8010E94B00102
:1001C0000FB6F894DEBF0FBECDBFCC59DF4F0FB6D0
:1001D000F894DEBF0FBECDBFDF91CF911F910F917D
:1001E0000895CF93C82FC295C07F60918C02646040
:1001F00060938C028EE40E94850287EC90E0019768
:10020000F1F700C0000060918C026C2B8EE40E941C
:10021000850260918C026B7F60938C028EE40E9459
:10022000850287EC90E00197F1F700C00000CF91C4
:100230000895CF93DF93C82FD82FD295DF706091A8
:100240008C026E7F60938C028EE40E9485028D2F5B
:100250000E94F1008C2F0E94F100DF91CF91089550
:10026000CF93DF93C82FD82FD295DF7060918C0287
:10027000616060938C028EE40E9485028D2F0E9443
:10028000F1008C2F0E94F100DF91CF9108950E9420
:1002900009028FE59AEE0197F1F700C0000083E0B4
:1002A0000E94F1008FE090E40197F1F700C0000098
:1002B00083E00E94F1008FE891E00197F1F700C020
:1002C000000083E00E94F1008FE99FE00197F1F7C1
:1002D00000C0000082E00E94F1008FE99FE00197DA
:1002E000F1F700C0000088E20E9419018FE99FE049
:1002F0000197F1F700C000008CE00E9419018FE91E
:100300009FE00197F1F700C0000081E00E94190111
:100310008FE99FE00197F1F700C0000086E00E949E
:1003200019018FE99FE00197F1F700C0000060918B
:100330008C02686060938C028EE40E94850260915A
:100340008C026D7F60938C028EE40E94850208957A
:1003500090E4699F800D112480680E94190108951E
:100360000F931F93CF93DF938C01C0E0D0E003C0C5
:100370000E9430012196F801EC0FFD1F8081811150
:10038000F7CFDF91CF911F910F910895CF93DF9316
:10039000CDB7DEB72C970FB6F894DEBF0FBECDBF3A
:1003A0000E9409020E9411040E944701EDE8F2E058
:1003B00089E184838FE0858388E382838CE483836F
:1003C0000F2EF7E0CF2EF02D0F2EF6E1EF2EF02DB1
:1003D00006E02CE048E267E381E10E94BF03CE0122
:1003E00001960E945503CE0101960E949602CE010D
:1003F00001960E94F1020E9479000E94B3002FEF43
:1004000083ED90E3215080409040E1F700C0000070
:10041000E6CFE4E6F0E080818F77808388E4809304
:10042000B800089584EA8093BC008091BC008823C2
:10043000E4F78091B900887F883031F084EE91E054
:100440000E94240480E0089581E0089584E9809367
:10045000BC008091BC0084FDFCCF08958093BB005C
:1004600084E88093BC008091BC008823E4F78091ED
:10047000B900887F883131F081EF91E00E94240437
:1004800080E0089581E0089581608093BB0084E856
:100490008093BC008091BC008823E4F78091B90070
:1004A000887F803431F084E092E00E94240480E070
:1004B000089581E008958093BB0084E88093BC0098
:1004C0008091BC008823E4F78091B900887F88324E
:1004D00031F087E192E00E94240480E0089581E0F9
:1004E000089584EC8093BC008091BC008823E4F7DD
:1004F0008091BB00089584E88093BC008091BC008B
:100500008823E4F78091BB000895CF93DF93D82F21
:10051000C62F0E9412028D2F0E942E028C2F0E9445
:100520005B020E942602DF91CF9108950F931F93E3
:10053000CF93DF93CDB7DEB7C456D1090FB6F89489
:10054000DEBF0FBECDBFFC015481458133812081C8
:1005500091818281652F052E000C770B7F935F932D
:1005600057815F9356815F93642F042E000C770BA5
:100570007F934F93432F032E000C550B5F933F93B4
:10058000422F022E000C550B5F932F93292F092E1B
:10059000000C330B3F939F93282F082E000C330B36
:1005A0003F938F938DE492E09F938F938E010F5F23
:1005B0001F4F1F930F930E943104C8010E9424040F
:1005C0000FB6F894DEBF0FBECDBFCC59DF4F0FB6CC
:1005D000F894DEBF0FBECDBFDF91CF911F910F9179
:1005E00008950F931F93CF93DF93CDB7DEB769972D
:1005F0000FB6F894DEBF0FBECDBFFC012081918104
:100600008281422F022E000C550B5F932F93292FCE
:10061000092E000C330B3F939F93282F082E000CBC
:10062000330B3F938F938CE792E09F938F938E01D0
:100630000F5F1F4F1F930F930E94310460E080E013
:100640000E94A801C8010E94B0010FB6F894DEBF55
:100650000FBECDBF69960FB6F894DEBF0FBECDBFFB
:10066000DF91CF911F910F910895982F92959F70D0
:10067000292F220F920F292F220F821B08952DEC74
:10068000829F212D1124922F969596959695990FDC
:10069000392F330F330F930F891B269526952695F7
:1006A00030E1239F800D11240895BF92CF92DF92F5
:1006B000EF92FF920F931F93CF93DF93EC010E9471
:1006C000120282EA0E942E0282E00E945B020E94D5
:1006D00026020E94120282EA0E9444020E947102D3
:1006E000B82E0E947102D82E0E947102E82E0E943C
:1006F0007102F82E0E947102082F0E947102182FB9
:100700000E947B02C82E0E9426028D2D8F77D82E44
:100710008E2D8F73E82E8F2D8F73F82E07701F711B
:100720008B2D8F770E943503B82E8D2D0E943503B7
:10073000D82E8E2D0E943503E82E8F2D0E94350372
:10074000F82E802F0E943503082F812F0E94350339
:10075000182F8C2D0E943503B882D982EA82FB8241
:100760000C831D8390E09F838E83DF91CF911F9137
:100770000F91FF90EF90DF90CF90BF900895AF92D0
:10078000BF92CF92DF92EF92FF920F931F93CF937E
:10079000DF93162FD42FC22F0E943F03D82E812F14
:1007A0000E943F03B82E8D2F0E943F03A82E8C2F4E
:1007B0000E943F03F82E802F0E943F03D82F8E2DDA
:1007C0000E943F03C82F8C2D0E943F03182F0E94C8
:1007D000120282EA0E942E0282E00E945B028A2DAF
:1007E0000E945B028B2D0E945B028D2D0E945B029A
:1007F0008F2D0E945B02812F0E945B028D2F0E9431
:100800005B028C2F0E945B020E942602DF91CF9137
:100810001F910F91FF90EF90DF90CF90BF90AF901E
:1008200008951092C50087E68093C40088E1809304
:10083000C10086E08093C20008959091C00095FFAA
:10084000FCCF8093C6000895CF93DF93EC0103C0E3
:1008500021960E941D0488818111FACFDF91CF91EA
:100860000895AEE0B0E0E7E3F4E00C94F2060D8901
:100870001E8986E08C831A8309838FEF9FE79E830E
:100880008D83AE01475E5F4F6F89788DCE010196F3
:100890000E945304EF81F885E00FF11F10822E961D
:1008A000E4E00C940E07ABE0B0E0E9E5F4E00C9472
:1008B000E4066C017B018A01FC01178216828381A8
:1008C00081FFCCC1CE0101963C01F6019381F70175
:1008D00093FD859193FF81917F01882309F4BAC12B
:1008E000853239F493FD859193FF81917F018532A3
:1008F00029F4B60190E00E944A06E7CF912C212C02
:10090000312CFFE1F315D8F08B3279F038F48032D6
:1009100079F08332A1F4232D20611DC08D3261F066
:10092000803369F4232D216016C0832D8260382E18
:10093000E32DE4603E2E2AC0F32DF8601DC037FC85
:100940002DC020ED280F2A3040F08E32B9F436FC4D
:1009500081C1232D2064322E19C036FE06C08AE0E4
:10096000989E200D1124922E11C0EAE02E9E200D9B
:100970001124222EF32DF0623F2E08C08C3621F474
:10098000832D8068382E02C0883641F4F70193FD2C
:10099000859193FF81917F018111B3CF982F9F7D26
:1009A0009554933028F40C5F1F4F9FE399830DC03B
:1009B000833631F0833771F0833509F059C021C097
:1009C000F801808189830E5F1F4F88248394912CC6
:1009D000530113C02801F2E04F0E511CF801A08012
:1009E000B18036FE03C0692D70E002C06FEF7FEF6B
:1009F000C5010E943F064C018201F32DFF773F2E77
:100A000016C0280122E0420E511CF801A080B180DE
:100A100036FE03C0692D70E002C06FEF7FEFC501A5
:100A20000E9434064C01F32DF0683F2E820133FC06
:100A30001BC0822D90E088169906B0F4B60180E2C2
:100A400090E00E944A062A94F4CFF50137FC859184
:100A500037FE81915F01B60190E00E944A062110A5
:100A60002A9421E0821A91088114910471F7E8C058
:100A7000843611F0893641F5F80137FE07C06081F0
:100A80007181828193810C5F1F4F08C060817181E9
:100A9000072E000C880B990B0E5F1F4FF32DFF766E
:100AA0003F2E97FF09C090958095709561957F4F77
:100AB0008F4F9F4FF0683F2E2AE030E0A3010E9445
:100AC0008606882E861845C0853731F4232D2F7E63
:100AD000B22E2AE030E025C0932D997FB92E8F36B3
:100AE000C1F018F4883579F0B5C0803719F088372F
:100AF00021F0B0C0E92FE061BE2EB4FE0DC0FB2D89
:100B0000F460BF2E09C034FE0AC0292F2660B22E21
:100B100006C028E030E005C020E130E002C020E15E
:100B200032E0F801B7FE07C0608171818281938154
:100B30000C5F1F4F06C06081718180E090E00E5F06
:100B40001F4FA3010E948606882E8618FB2DFF7773
:100B50003F2E36FE0DC0232D2E7FA22E891458F471
:100B600034FE0BC032FC09C0832D8E7EA82E05C03A
:100B7000B82CA32C03C0B82C01C0B92CA4FE0FC004
:100B8000FE01E80DF11D8081803321F49A2D997EBC
:100B9000A92E09C0A2FE06C0B394B39404C08A2D46
:100BA000867809F0B394A3FC11C0A0FE06C0B2146D
:100BB00088F4280C922C9B180EC0B21460F4B60175
:100BC00080E290E00E944A06B394F7CFB21418F482
:100BD0002B1802C0982C212CA4FE10C0B60180E373
:100BE00090E00E944A06A2FE17C0A1FC03C088E75D
:100BF00090E002C088E590E0B6010CC08A2D8678AE
:100C000059F0A1FE02C08BE201C080E2A7FC8DE298
:100C1000B60190E00E944A06891438F4B60180E3D8
:100C200090E00E944A069A94F7CF8A94F301E80D67
:100C3000F11D8081B60190E00E944A068110F5CF37
:100C4000222009F442CEB60180E290E00E944A06DA
:100C50002A94F6CFF6018681978102C08FEF9FEF2D
:100C60002B96E2E10C940007FC0105906150704066
:100C70000110D8F7809590958E0F9F1F0895FC0165
:100C80006150704001900110D8F7809590958E0FBB
:100C90009F1F08950F931F93CF93DF93FB01238131
:100CA00021FD03C08FEF9FEF2CC022FF16C04681AD
:100CB0005781248135814217530744F4A081B181C3
:100CC0009D012F5F3F4F318320838C932681378195
:100CD0002F5F3F4F3783268314C08B01EC01FB014C
:100CE0000084F185E02D0995892BE1F6D80116964F
:100CF0008D919C911797019617969C938E931697BA
:100D0000CE01DF91CF911F910F910895FA01AA278B
:100D1000283051F1203181F1E8946F936E7F6E5F3E
:100D20007F4F8F4F9F4FAF4FB1E03ED0B4E03CD0EC
:100D3000670F781F891F9A1FA11D680F791F8A1FCF
:100D4000911DA11D6A0F711D811D911DA11D20D036
:100D500009F468943F912AE0269F11243019305DF0
:100D60003193DEF6CF010895462F4770405D4193E1
:100D7000B3E00FD0C9F7F6CF462F4F70405D4A332E
:100D800018F0495D31FD4052419302D0A9F7EACFF6
:100D9000B4E0A6959795879577956795BA95C9F725
:100DA00000976105710508959B01AC010A2E069418
:100DB0005795479537952795BA95C9F7620F731FD1
:100DC000841F951FA01D08952F923F924F925F920E
:100DD0006F927F928F929F92AF92BF92CF92DF924B
:100DE000EF92FF920F931F93CF93DF93CDB7DEB7B0
:100DF000CA1BDB0B0FB6F894DEBF0FBECDBF099444
:100E00002A88398848885F846E847D848C849B849A
:100E1000AA84B984C884DF80EE80FD800C811B81A8
:100E2000AA81B981CE0FD11D0FB6F894DEBF0FBED7
:0A0E3000CDBFED010895F894FFCF47
:100E3A0048756D6964697479203D20253033642EC4
:100E4A002530326425250954656D706572617475A3
:100E5A007265203D20253032642E253032640A0D19
:100E6A0000483D253032642E253032642020543D1E
:100E7A00253032642E253032640074657374313142
:100E8A000A0D007465737432320A0D007465737446
:100E9A0033330A0D0074657374310A0D0074657377
:100EAA0074320A0D0074657374330A0D0074657325
:100EBA0074340A0D0074657374360A0D0074657310
:100ECA0074370A0D0074657374380A0D00746573FB
:100EDA0074390A0D007465737431300A0D00746533
:100EEA00737431320A0D007465737431330A0D005C
:100EFA007465737431340A0D007465737431350A7C
:100F0A000D007465737431360A0D0074657374319B
:100F1A00370A0D005354415254204E41434B0A0D97
:100F2A000057726974655F534C415F57204E4143C5
:100F3A004B0A0D0057726974655F534C415F52202A
:100F4A004E41434B0A0D0057726974655F646174C0
:100F5A0061204E41434B0A0D000D0A09536C61761C
:100F6A006520616464726573733A20000A0D0A0D84
:100F7A000043616E742066696E643A20002530323F
:100F8A00643A253032643A253032640925303264B5
:100F9A002E253032642E25303264722020202057CC
:100FAA0045454B4441593A25640A0D0025303264BF
:0C0FBA003A253032643A253032640000E1
:00000001FF
