:100000000C945A000C9477000C9477000C947700B1
:100010000C9477000C9477000C9477000C94770084
:100020000C9477000C9477000C9477000C943303B5
:100030000C9477000C9477000C9477000C94770064
:100040000C9477000C9477000C9477000C9475074F
:100050000C9477000C9477000C9477000C94770044
:100060000C9477000C9477000C9477000C94770034
:100070000C9477000C9477000C9477000C94770024
:100080000C9477000C9477000C9477000C94770014
:100090000C9477000C9477000C9477000C94770004
:1000A0000C9477000C9477000C9477000C947700F4
:1000B0000C94770011241FBECFEFD8E0DEBFCDBF78
:1000C00012E0A0E0B1E0E8EAF5E102C005900D928F
:1000D000AE3DB107D9F726E0AEEDB2E001C01D920A
:1000E000AD3EB207E1F70E9456030C94D20A0C947D
:1000F000000087B1816087B988B18E7F88B92FEF02
:1001000089EF90E0215080409040E1F700C000006E
:1001100088B1816088B9089587B18E7F87B980E002
:1001200091E00E94D6073099FECF83E191E00E94D2
:10013000D607309BFECF86E291E00E94D607309929
:10014000FECF89E391E00E94D607089520E030E0D9
:1001500080E011C0309BFECF90EA9A95F1F7309B7A
:1001600005C090E0880F991F816001C0880F309909
:10017000FECF2F5F3F4F2830310564F30895CF93B2
:10018000DF93EC012FEF85EA9EE021508040904004
:10019000E1F700C000000E9479008CE491E00E9429
:1001A000D6070E948C008CE491E00E94D6070E9442
:1001B000A60088830E94A60089830E94A6008A83E5
:1001C0000E94A6008B830E94A6008C83DF91CF91B2
:1001D00008950F931F93CF93DF93CDB7DEB7C45627
:1001E000D1090FB6F894DEBF0FBECDBFFC0133813D
:1001F0002281918180811F923F931F922F931F92A2
:100200009F931F928F9386E591E09F938F938E012A
:100210000F5F1F4F1F930F930E94E807C8010E94B2
:10022000D6070FB6F894DEBF0FBECDBFCC59DF4F57
:100230000FB6F894DEBF0FBECDBFDF91CF911F91F7
:100240000F910895EF92FF920F931F93CF93DF9337
:10025000CDB7DEB7C456D1090FB6F894DEBF0FBED6
:10026000CDBF7C01FC0180811F928F9388E891E0D3
:100270009F938F938E010F5F1F4F1F930F930E94C9
:10028000E80760E08BE00E941503C8010E941D038F
:10029000F70182811F928F9381E991E09F938F9361
:1002A0001F930F930E94E80761E08BE00E94150303
:1002B000C8010E941D030FB6F894DEBF0FBECDBF6C
:1002C000CC59DF4F0FB6F894DEBF0FBECDBFDF9124
:1002D000CF911F910F91FF90EF9008951F93CF93AF
:1002E000DF93182FEB010E94C50480EA0E94E1040D
:1002F000812F0E940E0589810E940E0588810E942F
:100300000E058B810E940E058A810E940E050E94B7
:10031000D9048FE39CE90197F1F700C00000DF9159
:10032000CF911F9108951F93CF93DF93CDB7DEB781
:100330002A970FB6F894DEBF0FBECDBF182F0E94CC
:10034000C50480EA0E94E104812F0E940E050E94EC
:10035000D9040E94C50480EA0E94F7040E94240583
:100360008F830E9424058E830E94240589870E9422
:10037000240588870E94D9048FE39CE90197F1F74F
:1003800000C0000085E0FE013696DE011196019066
:100390000D928A95E1F729813A814B815C816D81CB
:1003A00070E080E090E02A960FB6F894DEBF0FBEB2
:1003B000CDBFDF91CF911F9108951F93CF93DF930E
:1003C000182FEB010E94C50480EA0E94E104812FEE
:1003D0000E940E0588810E940E0589810E940E05EB
:1003E0008A810E940E058B810E940E058C810E94DD
:1003F0000E058D810E940E058E810E940E050E94C1
:10040000D9048FE39CE90197F1F700C00000DF9168
:10041000CF911F9108951F93CF93DF93CDB7DEB790
:100420002E970FB6F894DEBF0FBECDBF182F0E94D7
:10043000C50480EA0E94E104812F0E940E050E94FB
:10044000D9040E94C50480EA0E94F7040E94240592
:1004500088870E94240589870E9424058A870E9434
:1004600024058B870E9424058C870E9424058D8794
:100470000E9424058E870E94D9048FE39CE901978E
:10048000F1F700C0000087E0FE013896DE0111960A
:1004900001900D928A95E1F729813A814B815C8127
:1004A0006D817E818F8190E02E960FB6F894DEBF2D
:1004B0000FBECDBFDF91CF911F910895CF93C82F6D
:1004C000C295C07F6091DE0264606093DE028EE4BC
:1004D0000E94A60487EC90E00197F1F700C00000AD
:1004E0006091DE026C2B8EE40E94A6046091DE0215
:1004F0006B7F6093DE028EE40E94A60487EC90E09E
:100500000197F1F700C00000CF910895CF93DF93DA
:10051000C82FD82FD295DF706091DE026E7F609376
:10052000DE028EE40E94A6048D2F0E945E028C2FB4
:100530000E945E02DF91CF910895CF93DF93C82F81
:10054000D82FD295DF706091DE0261606093DE0289
:100550008EE40E94A6048D2F0E945E028C2F0E94C2
:100560005E02DF91CF9108950E942A048FE59AEEF2
:100570000197F1F700C0000083E00E945E028FE067
:1005800090E40197F1F700C0000083E00E945E0252
:100590008FE891E00197F1F700C0000083E00E942E
:1005A0005E028FE99FE00197F1F700C0000082E052
:1005B0000E945E028FE99FE00197F1F700C0000002
:1005C00088E20E9486028FE99FE00197F1F700C060
:1005D00000008CE00E9486028FE99FE00197F1F70E
:1005E00000C0000081E00E9486028FE99FE0019731
:1005F000F1F700C0000086E00E9486028FE99FE0CC
:100600000197F1F700C000006091DE02686060931E
:10061000DE028EE40E94A6046091DE026D7F60938C
:10062000DE028EE40E94A604089590E4699F800D86
:10063000112480680E94860208950F931F93CF9320
:10064000DF938C01C0E0D0E003C00E949D022196A0
:10065000F801EC0FFD1F80818111F7CFDF91CF9161
:100660001F910F9108951F920F920FB60F921124B0
:100670008F939F938091E1029091E2020196909373
:10068000E2028093E1020A9751F481E090E09093B6
:10069000E0028093DF021092E2021092E1029F9149
:1006A0008F910F900FBE0F901F901895CF93DF93EF
:1006B000CDB7DEB768970FB6F894DEBF0FBECDBFDB
:1006C0000E942A040E94B7040E94B1070E9460079A
:1006D0000E94B40278946894CC24C2F80F2EF6E1FC
:1006E000EF2EF02D06E02FE048E267E38CE00E9459
:1006F0000E0710E0CE0101960E94A606CE010196DB
:100700000E94EE0589E991E00E94D607CE0101968C
:100710000E94300680EA91E00E94D607CE010F9633
:100720000E94BF0089E991E00E94D607CE010F9692
:100730000E94E90089E991E00E94D607CE010F9658
:100740000E94220189E991E00E94D6071123E9F174
:100750008091DF029091E0020197B9F588EA91E07B
:100760000E94D6078FE39CE90197F1F700C00000D3
:1007700080E10E9493012C8B3D8B4E8B5F8B688FA9
:1007800080E50E940B02288739874A875B876C8740
:100790007D878E87CE0108960E94EE05CE010896D1
:1007A0000E943006CE0144960E94E900CE01449694
:1007B0000E9422018FE39CE90197F1F700C000003D
:1007C00084ED91E00E94D60710E08091DF029091C5
:1007D000E002892BA9F18BED91E00E94D6078FE30F
:1007E0009CE90197F1F700C00000BE01615F7F4FF7
:1007F00080E10E946E01BE016F5F7F4F80E50E9425
:10080000DD01CE0101960E94EE05CE0101960E9407
:100810003006CE010F960E94E900CE010F960E948D
:1008200022018FE39CE90197F1F700C0000084EDFD
:1008300091E00E94D6071092E0021092DF0211E0D0
:100840009FEF2DE282E2915020408040E1F700C00E
:10085000000050CFE4E6F0E080818F77808388E469
:100860008093B800089584EA8093BC008091BC0016
:100870008823E4F78091B900887F883031F08AE1DD
:1008800092E00E94D60780E0089581E0089584E90F
:100890008093BC008091BC0084FDFCCF08958093C0
:1008A000BB0084E88093BC008091BC008823E4F7FF
:1008B0008091B900887F883131F087E292E00E9410
:1008C000D60780E0089581E0089581608093BB00A1
:1008D00084E88093BC008091BC008823E4F7809179
:1008E000B900887F803431F08AE392E00E94D60715
:1008F00080E0089581E008958093BB0084E88093B0
:10090000BC008091BC008823E4F78091B900887F07
:10091000883231F08DE492E00E94D60780E008959D
:1009200081E0089584EC8093BC008091BC00882312
:10093000E4F78091BB00089584E88093BC00809127
:10094000BC008823E4F78091BB000895CF93DF9328
:10095000D82FC62F0E9433048D2F0E944F048C2F56
:100960000E947C040E944704DF91CF910895E5E640
:10097000F0E080818F7D808384E48093DC0010929E
:10098000D90088E48093D800089584EA8093DC003D
:100990008091DC008823E4F78091D900887F88303B
:1009A00031F08AE192E00E94D60780E0089581E06C
:1009B000089584E98093DC008091DC0084FDFCCF05
:1009C00008958093DB0084E88093DC008091DC0054
:1009D0008823E4F78091D900887F883131F087E25D
:1009E00092E00E94D60780E0089581E0089581603A
:1009F0008093DB0084E88093DC008091DC00882316
:100A0000E4F78091D900887F803431F08AE392E066
:100A10000E94D60780E0089581E008958093DB006E
:100A200084E88093DC008091DC008823E4F78091E7
:100A3000D900887F883231F08DE492E00E94D60799
:100A400080E0089581E0089584EC8093DC0080913B
:100A5000DC008823E4F78091DB000895FC01009717
:100A600011F40E94E3076115710511F40E94E30778
:100A70004115510511F40E94E307892B91F061158E
:100A8000710589F04115510581F07183608373838D
:100A9000628357834683158214827187608781E061
:100AA000089580E0089580E0089580E00895CF9350
:100AB000DF93FC01009711F40E94E307892B99F161
:100AC00024813581868197812817390770F5C08583
:100AD000D185A081B181AE014A1B5B0B9A0122F442
:100AE00022273327241B350B8217930779F4D183F0
:100AF000C083688380819181019691838083848102
:100B0000958101969583848381E010C06C938081E8
:100B1000918101969183808384819581019695834B
:100B2000848381E003C080E001C080E0DF91CF9149
:100B30000895CF93DF93FC01009711F40E94E3071F
:100B40006115710511F40E94E307892BE9F1611524
:100B50007105E1F184819581268137812817390754
:100B6000B8F1892BB9F1C085D185A281B381AE01DD
:100B70004A1B5B0BCA01992324F488279927841BFD
:100B8000950B2817390789F4D383C2838881DB0149
:100B90008C93828193810196938382838481958152
:100BA00001979583848381E016C08C91DB018C933F
:100BB00082819381019693838283848195810197B9
:100BC0009583848381E007C080E005C080E003C096
:100BD00080E001C080E0DF91CF9108950F931F93D3
:100BE000CF93DF93CDB7DEB7C456D1090FB6F894D3
:100BF000DEBF0FBECDBFFC016481568145813381CC
:100C00002081918182811F926F931F925F931F9227
:100C10004F931F923F931F922F931F929F931F9268
:100C20008F9380E992E09F938F938E010F5F1F4F08
:100C30001F930F930E94E807C8010E94D6070FB6C2
:100C4000F894DEBF0FBECDBFCC59DF4F0FB6F8947E
:100C5000DEBF0FBECDBFDF91CF911F910F910895E1
:100C6000EF92FF920F931F93CF93DF93CDB7DEB731
:100C700069970FB6F894DEBF0FBECDBF8C01FC01A3
:100C80002081918182811F922F931F929F931F92A7
:100C90008F938FEB92E09F938F93CE0101967C010F
:100CA0009F938F930E94E80760E080E00E94150305
:100CB000C7010E941D03F8012681958183811F923F
:100CC0002F931F929F931F928F938EEC92E09F938E
:100CD0008F93FF92EF920E94E80761E080E00E940C
:100CE0001503C7010E941D030FB6F894DEBF0FBEA7
:100CF000CDBF69960FB6F894DEBF0FBECDBFDF91B2
:100D0000CF911F910F91FF90EF900895982F92959A
:100D10009F70292F220F920F292F220F821B0895D7
:100D20002DEC829F212D1124922F969596959695C4
:100D3000990F392F330F330F930F891B2695269563
:100D4000269530E1239F800D11240895BF92CF9204
:100D5000DF92EF92FF920F931F93CF93DF93EC01FB
:100D60000E94330482EA0E944F0482E00E947C04C5
:100D70000E9447040E94330482EA0E9465040E9494
:100D80009204B82E0E949204D82E0E949204E82E5B
:100D90000E949204F82E0E949204082F0E9492044E
:100DA000182F0E949C04C82E0E9447048D2D8F7717
:100DB000D82E8E2D8F73E82E8F2D8F73F82E0770FF
:100DC0001F718B2D8F770E948606B82E8D2D0E9465
:100DD0008606D82E8E2D0E948606E82E8F2D0E9424
:100DE0008606F82E802F0E948606082F812F0E94EB
:100DF0008606182F8C2D0E948606B882D982EA8238
:100E0000FB820C831D838E83DF91CF911F910F9105
:100E1000FF90EF90DF90CF90BF900895AF92BF9278
:100E2000CF92DF92EF92FF920F931F93CF93DF93B6
:100E3000162FD42FC22F0E949006D82E812F0E94E9
:100E40009006B82E8D2F0E949006A82E8C2F0E94FF
:100E50009006F82E802F0E949006D82F8E2D0E948B
:100E60009006C82F8C2D0E949006182F0E943304E4
:100E700082EA0E944F0482E00E947C048A2D0E9434
:100E80007C048B2D0E947C048D2D0E947C048F2D70
:100E90000E947C04812F0E947C048D2F0E947C0480
:100EA0008C2F0E947C040E944704DF91CF911F91F8
:100EB0000F91FF90EF90DF90CF90BF90AF9008958B
:100EC000E1E8F0E0808185608083808188608083B4
:100ED00089E09DE39093890080938800EFE6F0E03D
:100EE000808182608083789408951F920F920FB65C
:100EF0000F9211242F933F934F935F936F937F93A0
:100F00008F939F93AF93BF93EF93FF93CF93DF9311
:100F10001F92CDB7DEB7BE016F5F7F4F83EE96E0C5
:100F20000E949905882321F089818093C60005C01D
:100F3000E1ECF0E080818F7D80830F90DF91CF9195
:100F4000FF91EF91BF91AF919F918F917F916F91A1
:100F50005F914F913F912F910F900FBE0F901F9077
:100F6000189540E054E063EE72E083EE96E00E9454
:100F70002E051092C50087E68093C40088E1809317
:100F8000C10086E08093C2000895F894682F83EE34
:100F900096E00E945705882339F0E1ECF0E080816B
:100FA0008062808378940895F8940895CF93DF93B6
:100FB000EC0103C021960E94C50788818111FACFF8
:100FC000DF91CF91089581E090E0F8940C94D20ADB
:100FD000AEE0B0E0EEEEF7E00C94A90A0D891E89B0
:100FE00086E08C831A8309838FEF9FE79E838D832E
:100FF000AE01475E5F4F6F89788DCE0101960E94EA
:101000000A08EF81F885E00FF11F10822E96E4E0C8
:101010000C94C50AABE0B0E0E0E1F8E00C949B0A68
:101020006C017B018A01FC0117821682838181FF9A
:10103000CCC1CE0101963C01F6019381F70193FDED
:10104000859193FF81917F01882309F4BAC185328C
:1010500039F493FD859193FF81917F01853229F4C5
:10106000B60190E00E94010AE7CF912C212C312C8F
:10107000FFE1F315D8F08B3279F038F4803279F053
:101080008332A1F4232D20611DC08D3261F08033A5
:1010900069F4232D216016C0832D8260382EE32D44
:1010A000E4603E2E2AC0F32DF8601DC037FC2DC031
:1010B00020ED280F2A3040F08E32B9F436FC81C181
:1010C000232D2064322E19C036FE06C08AE0989E79
:1010D000200D1124922E11C0EAE02E9E200D112425
:1010E000222EF32DF0623F2E08C08C3621F4832D82
:1010F0008068382E02C0883641F4F70193FD85914F
:1011000093FF81917F018111B3CF982F9F7D9554DB
:10111000933028F40C5F1F4F9FE399830DC08336F3
:1011200031F0833771F0833509F059C021C0F801DF
:10113000808189830E5F1F4F88248394912C5301F3
:1011400013C02801F2E04F0E511CF801A080B180BD
:1011500036FE03C0692D70E002C06FEF7FEFC5015E
:101160000E94F6094C018201F32DFF773F2E16C035
:10117000280122E0420E511CF801A080B18036FE09
:1011800003C0692D70E002C06FEF7FEFC5010E94C0
:10119000EB094C01F32DF0683F2E820133FC1BC09C
:1011A000822D90E088169906B0F4B60180E290E0B6
:1011B0000E94010A2A94F4CFF50137FC859137FE8D
:1011C00081915F01B60190E00E94010A21102A94EA
:1011D00021E0821A91088114910471F7E8C08436E5
:1011E00011F0893641F5F80137FE07C06081718141
:1011F000828193810C5F1F4F08C060817181072E2F
:10120000000C880B990B0E5F1F4FF32DFF763F2EBE
:1012100097FF09C090958095709561957F4F8F4F8E
:101220009F4FF0683F2E2AE030E0A3010E943D0A64
:10123000882E861845C0853731F4232D2F7EB22E97
:101240002AE030E025C0932D997FB92E8F36C1F06A
:1012500018F4883579F0B5C0803719F0883721F057
:10126000B0C0E92FE061BE2EB4FE0DC0FB2DF460CE
:10127000BF2E09C034FE0AC0292F2660B22E06C038
:1012800028E030E005C020E130E002C020E132E09B
:10129000F801B7FE07C060817181828193810C5F84
:1012A0001F4F06C06081718180E090E00E5F1F4F8C
:1012B000A3010E943D0A882E8618FB2DFF773F2E42
:1012C00036FE0DC0232D2E7FA22E891458F434FE35
:1012D0000BC032FC09C0832D8E7EA82E05C0B82C11
:1012E000A32C03C0B82C01C0B92CA4FE0FC0FE0172
:1012F000E80DF11D8081803321F49A2D997EA92E6D
:1013000009C0A2FE06C0B394B39404C08A2D8678A7
:1013100009F0B394A3FC11C0A0FE06C0B21488F477
:10132000280C922C9B180EC0B21460F4B60180E217
:1013300090E00E94010AB394F7CFB21418F42B186E
:1013400002C0982C212CA4FE10C0B60180E390E0CE
:101350000E94010AA2FE17C0A1FC03C088E790E02A
:1013600002C088E590E0B6010CC08A2D867859F05D
:10137000A1FE02C08BE201C080E2A7FC8DE2B601B3
:1013800090E00E94010A891438F4B60180E390E0ED
:101390000E94010A9A94F7CF8A94F301E80DF11D97
:1013A0008081B60190E00E94010A8110F5CF2220D1
:1013B00009F442CEB60180E290E00E94010A2A942C
:1013C000F6CFF6018681978102C08FEF9FEF2B96B3
:1013D000E2E10C94B70AFC010590615070400110E5
:1013E000D8F7809590958E0F9F1F0895FC0161504E
:1013F000704001900110D8F7809590958E0F9F1F37
:1014000008950F931F93CF93DF93FB01238121FD59
:1014100003C08FEF9FEF2CC022FF16C0468157817B
:10142000248135814217530744F4A081B1819D0185
:101430002F5F3F4F318320838C93268137812F5F2D
:101440003F4F3783268314C08B01EC01FB010084DE
:10145000F185E02D0995892BE1F6D80116968D913D
:101460009C911797019617969C938E931697CE0191
:10147000DF91CF911F910F910895FA01AA2728308B
:1014800051F1203181F1E8946F936E7F6E5F7F4F51
:101490008F4F9F4FAF4FB1E03ED0B4E03CD0670FCD
:1014A000781F891F9A1FA11D680F791F8A1F911D20
:1014B000A11D6A0F711D811D911DA11D20D009F470
:1014C00068943F912AE0269F11243019305D3193B2
:1014D000DEF6CF010895462F4770405D4193B3E09B
:1014E0000FD0C9F7F6CF462F4F70405D4A3318F042
:1014F000495D31FD4052419302D0A9F7EACFB4E0F3
:10150000A6959795879577956795BA95C9F70097AA
:101510006105710508959B01AC010A2E069457954B
:10152000479537952795BA95C9F7620F731F841FA2
:10153000951FA01D08952F923F924F925F926F9238
:101540007F928F929F92AF92BF92CF92DF92EF9253
:10155000FF920F931F93CF93DF93CDB7DEB7CA1BD4
:10156000DB0B0FB6F894DEBF0FBECDBF09942A88FF
:10157000398848885F846E847D848C849B84AA84A7
:10158000B984C884DF80EE80FD800C811B81AA8134
:10159000B981CE0FD11D0FB6F894DEBF0FBECDBFFF
:0815A000ED010895F894FFCF5E
:1015A8000A444854726573706F6E7365544553549A
:1015B800310A000A444854726573706F6E7365543B
:1015C800455354320A000A444854726573706F6E6A
:1015D800736554455354330A000A4448547265737A
:1015E800706F6E736554455354340A000A44485466
:1015F800544553540A0048756D6964697479203DEF
:1016080020253032642E2530326425250954656D35
:101618007065726174757265203D20253032642EC4
:1016280025303264430A0D00483D253032642525B3
:1016380000543D2530326443000A544553540A008F
:101648000A54455354310A000A0D0A0D4F64637A4F
:10165800797420776172746F736369207A61706935
:1016680073616E79636820646F20454550524F4D11
:101678003A0A0D000A0D0A0D0A0D000A0D0A0D5747
:10168800796B6F6E616E6F207A6170697320776114
:1016980072746F736369207A204448543131206929
:1016A8002052544320646F2070616D69656369201E
:1016B800454550524F4D3A0A0D005354415254205B
:1016C8004E41434B0A0D0057726974655F534C4194
:1016D8005F57204E41434B0A0D0057726974655F8E
:1016E800534C415F52204E41434B0A0D00577269DB
:1016F80074655F64617461204E41434B0A0D000DAF
:101708000A09536C61766520616464726573733A83
:10171800203078253032780A0D0A0D0043616E7446
:101728002066696E643A203078253032780A0D00D8
:10173800253032643A253032643A2530326409253E
:101748003032642E253032642E25303264722020E7
:1017580020205745454B4441593A25640A0D002538
:101768003032643A253032643A253032640025300C
:0E17780032642E253032642E2530326400009B
:00000001FF
